{"abi":[{"type":"function","name":"DEFAULT_EXPIRY_DURATION","inputs":[],"outputs":[{"name":"","type":"uint256","internalType":"uint256"}],"stateMutability":"view"},{"type":"function","name":"cancelTransfer","inputs":[{"name":"_transferId","type":"uint256","internalType":"uint256"}],"outputs":[],"stateMutability":"nonpayable"},{"type":"function","name":"claimTransfer","inputs":[{"name":"_transferId","type":"uint256","internalType":"uint256"},{"name":"_claimCode","type":"string","internalType":"string"}],"outputs":[],"stateMutability":"nonpayable"},{"type":"function","name":"createTransfer","inputs":[{"name":"_recipient","type":"address","internalType":"address"},{"name":"_tokenAddress","type":"address","internalType":"address"},{"name":"_amount","type":"uint256","internalType":"uint256"},{"name":"_expiryDuration","type":"uint256","internalType":"uint256"},{"name":"_claimCode","type":"string","internalType":"string"}],"outputs":[{"name":"","type":"uint256","internalType":"uint256"}],"stateMutability":"payable"},{"type":"function","name":"getRecipientTransfers","inputs":[{"name":"_recipient","type":"address","internalType":"address"}],"outputs":[{"name":"","type":"uint256[]","internalType":"uint256[]"}],"stateMutability":"view"},{"type":"function","name":"getSenderTransfers","inputs":[{"name":"_sender","type":"address","internalType":"address"}],"outputs":[{"name":"","type":"uint256[]","internalType":"uint256[]"}],"stateMutability":"view"},{"type":"function","name":"getTransfer","inputs":[{"name":"_transferId","type":"uint256","internalType":"uint256"}],"outputs":[{"name":"","type":"tuple","internalType":"struct ISafeTransfer.Transfer","components":[{"name":"sender","type":"address","internalType":"address"},{"name":"recipient","type":"address","internalType":"address"},{"name":"tokenAddress","type":"address","internalType":"address"},{"name":"amount","type":"uint256","internalType":"uint256"},{"name":"timestamp","type":"uint256","internalType":"uint256"},{"name":"expiryTime","type":"uint256","internalType":"uint256"},{"name":"claimCode","type":"bytes32","internalType":"bytes32"},{"name":"claimed","type":"bool","internalType":"bool"},{"name":"cancelled","type":"bool","internalType":"bool"}]}],"stateMutability":"view"},{"type":"function","name":"getTransferStatus","inputs":[{"name":"_transferId","type":"uint256","internalType":"uint256"}],"outputs":[{"name":"","type":"uint8","internalType":"enum ISafeTransfer.TransferStatus"}],"stateMutability":"view"},{"type":"function","name":"isTransferExpired","inputs":[{"name":"_transferId","type":"uint256","internalType":"uint256"}],"outputs":[{"name":"","type":"bool","internalType":"bool"}],"stateMutability":"view"},{"type":"function","name":"nextTransferId","inputs":[],"outputs":[{"name":"","type":"uint256","internalType":"uint256"}],"stateMutability":"view"},{"type":"function","name":"recipientTransfers","inputs":[{"name":"","type":"address","internalType":"address"},{"name":"","type":"uint256","internalType":"uint256"}],"outputs":[{"name":"","type":"uint256","internalType":"uint256"}],"stateMutability":"view"},{"type":"function","name":"senderTransfers","inputs":[{"name":"","type":"address","internalType":"address"},{"name":"","type":"uint256","internalType":"uint256"}],"outputs":[{"name":"","type":"uint256","internalType":"uint256"}],"stateMutability":"view"},{"type":"function","name":"transfers","inputs":[{"name":"","type":"uint256","internalType":"uint256"}],"outputs":[{"name":"sender","type":"address","internalType":"address"},{"name":"recipient","type":"address","internalType":"address"},{"name":"tokenAddress","type":"address","internalType":"address"},{"name":"amount","type":"uint256","internalType":"uint256"},{"name":"timestamp","type":"uint256","internalType":"uint256"},{"name":"expiryTime","type":"uint256","internalType":"uint256"},{"name":"claimCode","type":"bytes32","internalType":"bytes32"},{"name":"claimed","type":"bool","internalType":"bool"},{"name":"cancelled","type":"bool","internalType":"bool"}],"stateMutability":"view"},{"type":"event","name":"TransferCancelled","inputs":[{"name":"transferId","type":"uint256","indexed":true,"internalType":"uint256"},{"name":"sender","type":"address","indexed":true,"internalType":"address"},{"name":"tokenAddress","type":"address","indexed":true,"internalType":"address"},{"name":"amount","type":"uint256","indexed":false,"internalType":"uint256"}],"anonymous":false},{"type":"event","name":"TransferClaimed","inputs":[{"name":"transferId","type":"uint256","indexed":true,"internalType":"uint256"},{"name":"recipient","type":"address","indexed":true,"internalType":"address"},{"name":"tokenAddress","type":"address","indexed":true,"internalType":"address"},{"name":"amount","type":"uint256","indexed":false,"internalType":"uint256"}],"anonymous":false},{"type":"event","name":"TransferCreated","inputs":[{"name":"transferId","type":"uint256","indexed":true,"internalType":"uint256"},{"name":"sender","type":"address","indexed":true,"internalType":"address"},{"name":"recipient","type":"address","indexed":true,"internalType":"address"},{"name":"tokenAddress","type":"address","indexed":false,"internalType":"address"},{"name":"amount","type":"uint256","indexed":false,"internalType":"uint256"},{"name":"expiryTime","type":"uint256","indexed":false,"internalType":"uint256"},{"name":"hasClaimCode","type":"bool","indexed":false,"internalType":"bool"}],"anonymous":false},{"type":"error","name":"InsufficientBalance","inputs":[]},{"type":"error","name":"InvalidClaimCode","inputs":[]},{"type":"error","name":"NotAuthorized","inputs":[]},{"type":"error","name":"TransferAlreadyCancelled","inputs":[]},{"type":"error","name":"TransferAlreadyClaimed","inputs":[]},{"type":"error","name":"TransferExpired","inputs":[]},{"type":"error","name":"TransferNotExpired","inputs":[]},{"type":"error","name":"TransferNotFound","inputs":[]}],"bytecode":{"object":"0x6080604052348015600e575f5ffd5b506123ee8061001c5f395ff3fe6080604052600436106100c1575f3560e01c80639c51d4a11161007e578063b93c377011610058578063b93c3770146102b1578063bdcd231d146102ed578063c16fe90714610315578063c2dcd97e14610351576100c1565b80639c51d4a11461020f5780639cb80f001461024b578063b85b381b14610287576100c1565b806304233456146100c55780632bbdcb4e146101015780634ce9e2891461013d57806359caecb5146101675780636ad32f4e1461018f5780639377d711146101cb575b5f5ffd5b3480156100d0575f5ffd5b506100eb60048036038101906100e69190611a38565b610381565b6040516100f89190611b23565b60405180910390f35b34801561010c575f5ffd5b5061012760048036038101906101229190611b6d565b610414565b6040516101349190611bba565b60405180910390f35b348015610148575f5ffd5b5061015161043f565b60405161015e9190611bba565b60405180910390f35b348015610172575f5ffd5b5061018d60048036038101906101889190611bd3565b610446565b005b34801561019a575f5ffd5b506101b560048036038101906101b09190611bd3565b610852565b6040516101c29190611c18565b60405180910390f35b3480156101d6575f5ffd5b506101f160048036038101906101ec9190611bd3565b610a0c565b60405161020699989796959493929190611c58565b60405180910390f35b34801561021a575f5ffd5b5061023560048036038101906102309190611a38565b610acb565b6040516102429190611b23565b60405180910390f35b348015610256575f5ffd5b50610271600480360381019061026c9190611b6d565b610b5e565b60405161027e9190611bba565b60405180910390f35b348015610292575f5ffd5b5061029b610b89565b6040516102a89190611bba565b60405180910390f35b3480156102bc575f5ffd5b506102d760048036038101906102d29190611bd3565b610b8f565b6040516102e49190611d56565b60405180910390f35b3480156102f8575f5ffd5b50610313600480360381019061030e9190611eab565b610dc3565b005b348015610320575f5ffd5b5061033b60048036038101906103369190611bd3565b6112af565b6040516103489190611fe7565b60405180910390f35b61036b60048036038101906103669190612001565b611435565b6040516103789190611bba565b60405180910390f35b606060025f8373ffffffffffffffffffffffffffffffffffffffff1673ffffffffffffffffffffffffffffffffffffffff1681526020019081526020015f2080548060200260200160405190810160405280929190818152602001828054801561040857602002820191905f5260205f20905b8154815260200190600101908083116103f4575b50505050509050919050565b6001602052815f5260405f20818154811061042d575f80fd5b905f5260205f20015f91509150505481565b62093a8081565b5f5f5f8381526020019081526020015f2090505f73ffffffffffffffffffffffffffffffffffffffff16815f015f9054906101000a900473ffffffffffffffffffffffffffffffffffffffff1673ffffffffffffffffffffffffffffffffffffffff16036104e0576040517f5688606600000000000000000000000000000000000000000000000000000000815260040160405180910390fd5b3373ffffffffffffffffffffffffffffffffffffffff16815f015f9054906101000a900473ffffffffffffffffffffffffffffffffffffffff1673ffffffffffffffffffffffffffffffffffffffff1614610567576040517fea8e4eb500000000000000000000000000000000000000000000000000000000815260040160405180910390fd5b806007015f9054906101000a900460ff16156105af576040517fbea856ba00000000000000000000000000000000000000000000000000000000815260040160405180910390fd5b8060070160019054906101000a900460ff16156105f8576040517f8297bc1a00000000000000000000000000000000000000000000000000000000815260040160405180910390fd5b60018160070160016101000a81548160ff0219169083151502179055505f73ffffffffffffffffffffffffffffffffffffffff16816002015f9054906101000a900473ffffffffffffffffffffffffffffffffffffffff1673ffffffffffffffffffffffffffffffffffffffff160361071d575f3373ffffffffffffffffffffffffffffffffffffffff168260030154604051610694906120c1565b5f6040518083038185875af1925050503d805f81146106ce576040519150601f19603f3d011682016040523d82523d5f602084013e6106d3565b606091505b5050905080610717576040517f08c379a000000000000000000000000000000000000000000000000000000000815260040161070e9061212f565b60405180910390fd5b506107c1565b806002015f9054906101000a900473ffffffffffffffffffffffffffffffffffffffff1673ffffffffffffffffffffffffffffffffffffffff1663a9059cbb3383600301546040518363ffffffff1660e01b815260040161077f92919061214d565b6020604051808303815f875af115801561079b573d5f5f3e3d5ffd5b505050506040513d601f19601f820116820180604052508101906107bf919061219e565b505b806002015f9054906101000a900473ffffffffffffffffffffffffffffffffffffffff1673ffffffffffffffffffffffffffffffffffffffff163373ffffffffffffffffffffffffffffffffffffffff16837fb793b4b7fe4755c513c1f414e72788b4597f2a7fba03b010dd8cfa0cf0d5bd0d84600301546040516108469190611bba565b60405180910390a45050565b5f5f5f5f8481526020019081526020015f20604051806101200160405290815f82015f9054906101000a900473ffffffffffffffffffffffffffffffffffffffff1673ffffffffffffffffffffffffffffffffffffffff1673ffffffffffffffffffffffffffffffffffffffff168152602001600182015f9054906101000a900473ffffffffffffffffffffffffffffffffffffffff1673ffffffffffffffffffffffffffffffffffffffff1673ffffffffffffffffffffffffffffffffffffffff168152602001600282015f9054906101000a900473ffffffffffffffffffffffffffffffffffffffff1673ffffffffffffffffffffffffffffffffffffffff1673ffffffffffffffffffffffffffffffffffffffff16815260200160038201548152602001600482015481526020016005820154815260200160068201548152602001600782015f9054906101000a900460ff161515151581526020016007820160019054906101000a900460ff16151515158152505090507fffffffffffffffffffffffffffffffffffffffffffffffffffffffffffffffff8160a0015114158015610a0457508060a0015142115b915050919050565b5f602052805f5260405f205f91509050805f015f9054906101000a900473ffffffffffffffffffffffffffffffffffffffff1690806001015f9054906101000a900473ffffffffffffffffffffffffffffffffffffffff1690806002015f9054906101000a900473ffffffffffffffffffffffffffffffffffffffff1690806003015490806004015490806005015490806006015490806007015f9054906101000a900460ff16908060070160019054906101000a900460ff16905089565b606060015f8373ffffffffffffffffffffffffffffffffffffffff1673ffffffffffffffffffffffffffffffffffffffff1681526020019081526020015f20805480602002602001604051908101604052809291908181526020018280548015610b5257602002820191905f5260205f20905b815481526020019060010190808311610b3e575b50505050509050919050565b6002602052815f5260405f208181548110610b77575f80fd5b905f5260205f20015f91509150505481565b60035481565b5f5f5f5f8481526020019081526020015f20604051806101200160405290815f82015f9054906101000a900473ffffffffffffffffffffffffffffffffffffffff1673ffffffffffffffffffffffffffffffffffffffff1673ffffffffffffffffffffffffffffffffffffffff168152602001600182015f9054906101000a900473ffffffffffffffffffffffffffffffffffffffff1673ffffffffffffffffffffffffffffffffffffffff1673ffffffffffffffffffffffffffffffffffffffff168152602001600282015f9054906101000a900473ffffffffffffffffffffffffffffffffffffffff1673ffffffffffffffffffffffffffffffffffffffff1673ffffffffffffffffffffffffffffffffffffffff16815260200160038201548152602001600482015481526020016005820154815260200160068201548152602001600782015f9054906101000a900460ff161515151581526020016007820160019054906101000a900460ff16151515158152505090505f73ffffffffffffffffffffffffffffffffffffffff16815f015173ffffffffffffffffffffffffffffffffffffffff1603610d4a576004915050610dbe565b8060e0015115610d5e576001915050610dbe565b80610100015115610d73576002915050610dbe565b7fffffffffffffffffffffffffffffffffffffffffffffffffffffffffffffffff8160a0015114158015610daa57508060a0015142115b15610db9576003915050610dbe565b5f9150505b919050565b5f5f5f8481526020019081526020015f2090505f73ffffffffffffffffffffffffffffffffffffffff16815f015f9054906101000a900473ffffffffffffffffffffffffffffffffffffffff1673ffffffffffffffffffffffffffffffffffffffff1603610e5d576040517f5688606600000000000000000000000000000000000000000000000000000000815260040160405180910390fd5b3373ffffffffffffffffffffffffffffffffffffffff16816001015f9054906101000a900473ffffffffffffffffffffffffffffffffffffffff1673ffffffffffffffffffffffffffffffffffffffff1614610ee5576040517fea8e4eb500000000000000000000000000000000000000000000000000000000815260040160405180910390fd5b806007015f9054906101000a900460ff1615610f2d576040517fbea856ba00000000000000000000000000000000000000000000000000000000815260040160405180910390fd5b8060070160019054906101000a900460ff1615610f76576040517f8297bc1a00000000000000000000000000000000000000000000000000000000815260040160405180910390fd5b7fffffffffffffffffffffffffffffffffffffffffffffffffffffffffffffffff816005015414158015610fad5750806005015442115b15610fe4576040517ff765373100000000000000000000000000000000000000000000000000000000815260040160405180910390fd5b5f5f1b81600601541461105557806006015482604051602001611007919061221b565b6040516020818303038152906040528051906020012014611054576040517f860506ac00000000000000000000000000000000000000000000000000000000815260040160405180910390fd5b5b6001816007015f6101000a81548160ff0219169083151502179055505f73ffffffffffffffffffffffffffffffffffffffff16816002015f9054906101000a900473ffffffffffffffffffffffffffffffffffffffff1673ffffffffffffffffffffffffffffffffffffffff1603611179575f3373ffffffffffffffffffffffffffffffffffffffff1682600301546040516110f0906120c1565b5f6040518083038185875af1925050503d805f811461112a576040519150601f19603f3d011682016040523d82523d5f602084013e61112f565b606091505b5050905080611173576040517f08c379a000000000000000000000000000000000000000000000000000000000815260040161116a9061227b565b60405180910390fd5b5061121d565b806002015f9054906101000a900473ffffffffffffffffffffffffffffffffffffffff1673ffffffffffffffffffffffffffffffffffffffff1663a9059cbb3383600301546040518363ffffffff1660e01b81526004016111db92919061214d565b6020604051808303815f875af11580156111f7573d5f5f3e3d5ffd5b505050506040513d601f19601f8201168201806040525081019061121b919061219e565b505b806002015f9054906101000a900473ffffffffffffffffffffffffffffffffffffffff1673ffffffffffffffffffffffffffffffffffffffff163373ffffffffffffffffffffffffffffffffffffffff16847f5d388a3281945cfe2c86dbbb6e6c8de6edc7dcad35ece8986aac971a4d00b1bf84600301546040516112a29190611bba565b60405180910390a4505050565b6112b7611944565b5f5f8381526020019081526020015f20604051806101200160405290815f82015f9054906101000a900473ffffffffffffffffffffffffffffffffffffffff1673ffffffffffffffffffffffffffffffffffffffff1673ffffffffffffffffffffffffffffffffffffffff168152602001600182015f9054906101000a900473ffffffffffffffffffffffffffffffffffffffff1673ffffffffffffffffffffffffffffffffffffffff1673ffffffffffffffffffffffffffffffffffffffff168152602001600282015f9054906101000a900473ffffffffffffffffffffffffffffffffffffffff1673ffffffffffffffffffffffffffffffffffffffff1673ffffffffffffffffffffffffffffffffffffffff16815260200160038201548152602001600482015481526020016005820154815260200160068201548152602001600782015f9054906101000a900460ff161515151581526020016007820160019054906101000a900460ff1615151515815250509050919050565b5f5f5f73ffffffffffffffffffffffffffffffffffffffff168673ffffffffffffffffffffffffffffffffffffffff16036114ab575f34036114a3576040517ff4d678b800000000000000000000000000000000000000000000000000000000815260040160405180910390fd5b34905061159f565b5f85036114e4576040517ff4d678b800000000000000000000000000000000000000000000000000000000815260040160405180910390fd5b5f341461151d576040517ff4d678b800000000000000000000000000000000000000000000000000000000815260040160405180910390fd5b8490508573ffffffffffffffffffffffffffffffffffffffff166323b872dd3330886040518463ffffffff1660e01b815260040161155d93929190612299565b6020604051808303815f875af1158015611579573d5f5f3e3d5ffd5b505050506040513d601f19601f8201168201806040525081019061159d919061219e565b505b5f60035f8154809291906115b2906122fb565b9190505590505f5f86116115e6577fffffffffffffffffffffffffffffffffffffffffffffffffffffffffffffffff6115f3565b85426115f29190612342565b5b90505f5f865111611606575f5f1b61162e565b85604051602001611617919061221b565b604051602081830303815290604052805190602001205b90506040518061012001604052803373ffffffffffffffffffffffffffffffffffffffff1681526020018b73ffffffffffffffffffffffffffffffffffffffff1681526020018a73ffffffffffffffffffffffffffffffffffffffff1681526020018581526020014281526020018381526020018281526020015f151581526020015f15158152505f5f8581526020019081526020015f205f820151815f015f6101000a81548173ffffffffffffffffffffffffffffffffffffffff021916908373ffffffffffffffffffffffffffffffffffffffff1602179055506020820151816001015f6101000a81548173ffffffffffffffffffffffffffffffffffffffff021916908373ffffffffffffffffffffffffffffffffffffffff1602179055506040820151816002015f6101000a81548173ffffffffffffffffffffffffffffffffffffffff021916908373ffffffffffffffffffffffffffffffffffffffff160217905550606082015181600301556080820151816004015560a0820151816005015560c0820151816006015560e0820151816007015f6101000a81548160ff0219169083151502179055506101008201518160070160016101000a81548160ff02191690831515021790555090505060015f3373ffffffffffffffffffffffffffffffffffffffff1673ffffffffffffffffffffffffffffffffffffffff1681526020019081526020015f2083908060018154018082558091505060019003905f5260205f20015f909190919091505560025f8b73ffffffffffffffffffffffffffffffffffffffff1673ffffffffffffffffffffffffffffffffffffffff1681526020019081526020015f2083908060018154018082558091505060019003905f5260205f20015f90919091909150558973ffffffffffffffffffffffffffffffffffffffff163373ffffffffffffffffffffffffffffffffffffffff16847ffb6b52428ea8d625752a44a242820616f6f05e11f0104993704576c3e0f654ee8c88875f5f1b88141560405161192c9493929190612375565b60405180910390a48294505050505095945050505050565b6040518061012001604052805f73ffffffffffffffffffffffffffffffffffffffff1681526020015f73ffffffffffffffffffffffffffffffffffffffff1681526020015f73ffffffffffffffffffffffffffffffffffffffff1681526020015f81526020015f81526020015f81526020015f81526020015f151581526020015f151581525090565b5f604051905090565b5f5ffd5b5f5ffd5b5f73ffffffffffffffffffffffffffffffffffffffff82169050919050565b5f611a07826119de565b9050919050565b611a17816119fd565b8114611a21575f5ffd5b50565b5f81359050611a3281611a0e565b92915050565b5f60208284031215611a4d57611a4c6119d6565b5b5f611a5a84828501611a24565b91505092915050565b5f81519050919050565b5f82825260208201905092915050565b5f819050602082019050919050565b5f819050919050565b611a9e81611a8c565b82525050565b5f611aaf8383611a95565b60208301905092915050565b5f602082019050919050565b5f611ad182611a63565b611adb8185611a6d565b9350611ae683611a7d565b805f5b83811015611b16578151611afd8882611aa4565b9750611b0883611abb565b925050600181019050611ae9565b5085935050505092915050565b5f6020820190508181035f830152611b3b8184611ac7565b905092915050565b611b4c81611a8c565b8114611b56575f5ffd5b50565b5f81359050611b6781611b43565b92915050565b5f5f60408385031215611b8357611b826119d6565b5b5f611b9085828601611a24565b9250506020611ba185828601611b59565b9150509250929050565b611bb481611a8c565b82525050565b5f602082019050611bcd5f830184611bab565b92915050565b5f60208284031215611be857611be76119d6565b5b5f611bf584828501611b59565b91505092915050565b5f8115159050919050565b611c1281611bfe565b82525050565b5f602082019050611c2b5f830184611c09565b92915050565b611c3a816119fd565b82525050565b5f819050919050565b611c5281611c40565b82525050565b5f61012082019050611c6c5f83018c611c31565b611c79602083018b611c31565b611c86604083018a611c31565b611c936060830189611bab565b611ca06080830188611bab565b611cad60a0830187611bab565b611cba60c0830186611c49565b611cc760e0830185611c09565b611cd5610100830184611c09565b9a9950505050505050505050565b7f4e487b71000000000000000000000000000000000000000000000000000000005f52602160045260245ffd5b60058110611d2157611d20611ce3565b5b50565b5f819050611d3182611d10565b919050565b5f611d4082611d24565b9050919050565b611d5081611d36565b82525050565b5f602082019050611d695f830184611d47565b92915050565b5f5ffd5b5f5ffd5b5f601f19601f8301169050919050565b7f4e487b71000000000000000000000000000000000000000000000000000000005f52604160045260245ffd5b611dbd82611d77565b810181811067ffffffffffffffff82111715611ddc57611ddb611d87565b5b80604052505050565b5f611dee6119cd565b9050611dfa8282611db4565b919050565b5f67ffffffffffffffff821115611e1957611e18611d87565b5b611e2282611d77565b9050602081019050919050565b828183375f83830152505050565b5f611e4f611e4a84611dff565b611de5565b905082815260208101848484011115611e6b57611e6a611d73565b5b611e76848285611e2f565b509392505050565b5f82601f830112611e9257611e91611d6f565b5b8135611ea2848260208601611e3d565b91505092915050565b5f5f60408385031215611ec157611ec06119d6565b5b5f611ece85828601611b59565b925050602083013567ffffffffffffffff811115611eef57611eee6119da565b5b611efb85828601611e7e565b9150509250929050565b611f0e816119fd565b82525050565b611f1d81611c40565b82525050565b611f2c81611bfe565b82525050565b61012082015f820151611f475f850182611f05565b506020820151611f5a6020850182611f05565b506040820151611f6d6040850182611f05565b506060820151611f806060850182611a95565b506080820151611f936080850182611a95565b5060a0820151611fa660a0850182611a95565b5060c0820151611fb960c0850182611f14565b5060e0820151611fcc60e0850182611f23565b50610100820151611fe1610100850182611f23565b50505050565b5f61012082019050611ffb5f830184611f32565b92915050565b5f5f5f5f5f60a0868803121561201a576120196119d6565b5b5f61202788828901611a24565b955050602061203888828901611a24565b945050604061204988828901611b59565b935050606061205a88828901611b59565b925050608086013567ffffffffffffffff81111561207b5761207a6119da565b5b61208788828901611e7e565b9150509295509295909350565b5f81905092915050565b50565b5f6120ac5f83612094565b91506120b78261209e565b5f82019050919050565b5f6120cb826120a1565b9150819050919050565b5f82825260208201905092915050565b7f526566756e64206661696c6564000000000000000000000000000000000000005f82015250565b5f612119600d836120d5565b9150612124826120e5565b602082019050919050565b5f6020820190508181035f8301526121468161210d565b9050919050565b5f6040820190506121605f830185611c31565b61216d6020830184611bab565b9392505050565b61217d81611bfe565b8114612187575f5ffd5b50565b5f8151905061219881612174565b92915050565b5f602082840312156121b3576121b26119d6565b5b5f6121c08482850161218a565b91505092915050565b5f81519050919050565b5f81905092915050565b8281835e5f83830152505050565b5f6121f5826121c9565b6121ff81856121d3565b935061220f8185602086016121dd565b80840191505092915050565b5f61222682846121eb565b915081905092915050565b7f5472616e73666572206661696c656400000000000000000000000000000000005f82015250565b5f612265600f836120d5565b915061227082612231565b602082019050919050565b5f6020820190508181035f83015261229281612259565b9050919050565b5f6060820190506122ac5f830186611c31565b6122b96020830185611c31565b6122c66040830184611bab565b949350505050565b7f4e487b71000000000000000000000000000000000000000000000000000000005f52601160045260245ffd5b5f61230582611a8c565b91507fffffffffffffffffffffffffffffffffffffffffffffffffffffffffffffffff8203612337576123366122ce565b5b600182019050919050565b5f61234c82611a8c565b915061235783611a8c565b925082820190508082111561236f5761236e6122ce565b5b92915050565b5f6080820190506123885f830187611c31565b6123956020830186611bab565b6123a26040830185611bab565b6123af6060830184611c09565b9594505050505056fea2646970667358221220f0c1c678efafcba723344ca79d594fc5ca40f39c457c553b33259805410a27d264736f6c634300081e0033","linkReferences":{}},"methodIdentifiers":{"DEFAULT_EXPIRY_DURATION()":"4ce9e289","cancelTransfer(uint256)":"59caecb5","claimTransfer(uint256,string)":"bdcd231d","createTransfer(address,address,uint256,uint256,string)":"c2dcd97e","getRecipientTransfers(address)":"04233456","getSenderTransfers(address)":"9c51d4a1","getTransfer(uint256)":"c16fe907","getTransferStatus(uint256)":"b93c3770","isTransferExpired(uint256)":"6ad32f4e","nextTransferId()":"b85b381b","recipientTransfers(address,uint256)":"9cb80f00","senderTransfers(address,uint256)":"2bbdcb4e","transfers(uint256)":"9377d711"},"id":23}