{"abi":[{"type":"function","name":"DEFAULT_EXPIRY_DURATION","inputs":[],"outputs":[{"name":"","type":"uint256","internalType":"uint256"}],"stateMutability":"view"},{"type":"function","name":"cancelTransfer","inputs":[{"name":"_transferId","type":"uint256","internalType":"uint256"}],"outputs":[],"stateMutability":"nonpayable"},{"type":"function","name":"claimTransfer","inputs":[{"name":"_transferId","type":"uint256","internalType":"uint256"},{"name":"_claimCode","type":"string","internalType":"string"}],"outputs":[],"stateMutability":"nonpayable"},{"type":"function","name":"createTransfer","inputs":[{"name":"_recipient","type":"address","internalType":"address"},{"name":"_expiryDuration","type":"uint256","internalType":"uint256"},{"name":"_claimCode","type":"string","internalType":"string"}],"outputs":[{"name":"","type":"uint256","internalType":"uint256"}],"stateMutability":"payable"},{"type":"function","name":"getRecipientTransfers","inputs":[{"name":"_recipient","type":"address","internalType":"address"}],"outputs":[{"name":"","type":"uint256[]","internalType":"uint256[]"}],"stateMutability":"view"},{"type":"function","name":"getSenderTransfers","inputs":[{"name":"_sender","type":"address","internalType":"address"}],"outputs":[{"name":"","type":"uint256[]","internalType":"uint256[]"}],"stateMutability":"view"},{"type":"function","name":"getTransfer","inputs":[{"name":"_transferId","type":"uint256","internalType":"uint256"}],"outputs":[{"name":"","type":"tuple","internalType":"struct SafeTransfer.Transfer","components":[{"name":"sender","type":"address","internalType":"address"},{"name":"recipient","type":"address","internalType":"address"},{"name":"amount","type":"uint256","internalType":"uint256"},{"name":"timestamp","type":"uint256","internalType":"uint256"},{"name":"expiryTime","type":"uint256","internalType":"uint256"},{"name":"claimCode","type":"bytes32","internalType":"bytes32"},{"name":"claimed","type":"bool","internalType":"bool"},{"name":"cancelled","type":"bool","internalType":"bool"}]}],"stateMutability":"view"},{"type":"function","name":"getTransferStatus","inputs":[{"name":"_transferId","type":"uint256","internalType":"uint256"}],"outputs":[{"name":"","type":"string","internalType":"string"}],"stateMutability":"view"},{"type":"function","name":"isTransferExpired","inputs":[{"name":"_transferId","type":"uint256","internalType":"uint256"}],"outputs":[{"name":"","type":"bool","internalType":"bool"}],"stateMutability":"view"},{"type":"function","name":"nextTransferId","inputs":[],"outputs":[{"name":"","type":"uint256","internalType":"uint256"}],"stateMutability":"view"},{"type":"function","name":"recipientTransfers","inputs":[{"name":"","type":"address","internalType":"address"},{"name":"","type":"uint256","internalType":"uint256"}],"outputs":[{"name":"","type":"uint256","internalType":"uint256"}],"stateMutability":"view"},{"type":"function","name":"senderTransfers","inputs":[{"name":"","type":"address","internalType":"address"},{"name":"","type":"uint256","internalType":"uint256"}],"outputs":[{"name":"","type":"uint256","internalType":"uint256"}],"stateMutability":"view"},{"type":"function","name":"transfers","inputs":[{"name":"","type":"uint256","internalType":"uint256"}],"outputs":[{"name":"sender","type":"address","internalType":"address"},{"name":"recipient","type":"address","internalType":"address"},{"name":"amount","type":"uint256","internalType":"uint256"},{"name":"timestamp","type":"uint256","internalType":"uint256"},{"name":"expiryTime","type":"uint256","internalType":"uint256"},{"name":"claimCode","type":"bytes32","internalType":"bytes32"},{"name":"claimed","type":"bool","internalType":"bool"},{"name":"cancelled","type":"bool","internalType":"bool"}],"stateMutability":"view"},{"type":"event","name":"TransferCancelled","inputs":[{"name":"transferId","type":"uint256","indexed":true,"internalType":"uint256"},{"name":"sender","type":"address","indexed":true,"internalType":"address"},{"name":"amount","type":"uint256","indexed":false,"internalType":"uint256"}],"anonymous":false},{"type":"event","name":"TransferClaimed","inputs":[{"name":"transferId","type":"uint256","indexed":true,"internalType":"uint256"},{"name":"recipient","type":"address","indexed":true,"internalType":"address"},{"name":"amount","type":"uint256","indexed":false,"internalType":"uint256"}],"anonymous":false},{"type":"event","name":"TransferCreated","inputs":[{"name":"transferId","type":"uint256","indexed":true,"internalType":"uint256"},{"name":"sender","type":"address","indexed":true,"internalType":"address"},{"name":"recipient","type":"address","indexed":true,"internalType":"address"},{"name":"amount","type":"uint256","indexed":false,"internalType":"uint256"},{"name":"expiryTime","type":"uint256","indexed":false,"internalType":"uint256"},{"name":"hasClaimCode","type":"bool","indexed":false,"internalType":"bool"}],"anonymous":false},{"type":"error","name":"InsufficientBalance","inputs":[]},{"type":"error","name":"InvalidClaimCode","inputs":[]},{"type":"error","name":"NotAuthorized","inputs":[]},{"type":"error","name":"TransferAlreadyCancelled","inputs":[]},{"type":"error","name":"TransferAlreadyClaimed","inputs":[]},{"type":"error","name":"TransferExpired","inputs":[]},{"type":"error","name":"TransferNotExpired","inputs":[]},{"type":"error","name":"TransferNotFound","inputs":[]}],"bytecode":{"object":"0x6080604052348015600e575f5ffd5b50611deb8061001c5f395ff3fe6080604052600436106100c1575f3560e01c80639c51d4a11161007e578063b93c377011610058578063b93c3770146102b0578063bdcd231d146102ec578063c16fe90714610314578063db698f3414610350576100c1565b80639c51d4a11461020e5780639cb80f001461024a578063b85b381b14610286576100c1565b806304233456146100c55780632bbdcb4e146101015780634ce9e2891461013d57806359caecb5146101675780636ad32f4e1461018f5780639377d711146101cb575b5f5ffd5b3480156100d0575f5ffd5b506100eb60048036038101906100e69190611573565b610380565b6040516100f8919061165e565b60405180910390f35b34801561010c575f5ffd5b50610127600480360381019061012291906116a8565b610413565b60405161013491906116f5565b60405180910390f35b348015610148575f5ffd5b5061015161043e565b60405161015e91906116f5565b60405180910390f35b348015610172575f5ffd5b5061018d6004803603810190610188919061170e565b610445565b005b34801561019a575f5ffd5b506101b560048036038101906101b0919061170e565b610746565b6040516101c29190611753565b60405180910390f35b3480156101d6575f5ffd5b506101f160048036038101906101ec919061170e565b61087b565b604051610205989796959493929190611793565b60405180910390f35b348015610219575f5ffd5b50610234600480360381019061022f9190611573565b610915565b604051610241919061165e565b60405180910390f35b348015610255575f5ffd5b50610270600480360381019061026b91906116a8565b6109a8565b60405161027d91906116f5565b60405180910390f35b348015610291575f5ffd5b5061029a6109d3565b6040516102a791906116f5565b60405180910390f35b3480156102bb575f5ffd5b506102d660048036038101906102d1919061170e565b6109d9565b6040516102e3919061187f565b60405180910390f35b3480156102f7575f5ffd5b50610312600480360381019061030d91906119cb565b610c8d565b005b34801561031f575f5ffd5b5061033a6004803603810190610335919061170e565b611010565b6040516103479190611af2565b60405180910390f35b61036a60048036038101906103659190611b0c565b611141565b60405161037791906116f5565b60405180910390f35b606060025f8373ffffffffffffffffffffffffffffffffffffffff1673ffffffffffffffffffffffffffffffffffffffff1681526020019081526020015f2080548060200260200160405190810160405280929190818152602001828054801561040757602002820191905f5260205f20905b8154815260200190600101908083116103f3575b50505050509050919050565b6001602052815f5260405f20818154811061042c575f80fd5b905f5260205f20015f91509150505481565b62093a8081565b5f5f5f8381526020019081526020015f2090505f73ffffffffffffffffffffffffffffffffffffffff16815f015f9054906101000a900473ffffffffffffffffffffffffffffffffffffffff1673ffffffffffffffffffffffffffffffffffffffff16036104df576040517f5688606600000000000000000000000000000000000000000000000000000000815260040160405180910390fd5b3373ffffffffffffffffffffffffffffffffffffffff16815f015f9054906101000a900473ffffffffffffffffffffffffffffffffffffffff1673ffffffffffffffffffffffffffffffffffffffff1614610566576040517fea8e4eb500000000000000000000000000000000000000000000000000000000815260040160405180910390fd5b806006015f9054906101000a900460ff16156105ae576040517fbea856ba00000000000000000000000000000000000000000000000000000000815260040160405180910390fd5b8060060160019054906101000a900460ff16156105f7576040517f8297bc1a00000000000000000000000000000000000000000000000000000000815260040160405180910390fd5b806004015442116106245760018160060160016101000a81548160ff021916908315150217905550610642565b60018160060160016101000a81548160ff0219169083151502179055505b5f3373ffffffffffffffffffffffffffffffffffffffff16826002015460405161066b90611ba5565b5f6040518083038185875af1925050503d805f81146106a5576040519150601f19603f3d011682016040523d82523d5f602084013e6106aa565b606091505b50509050806106ee576040517f08c379a00000000000000000000000000000000000000000000000000000000081526004016106e590611c03565b60405180910390fd5b3373ffffffffffffffffffffffffffffffffffffffff16837fb7abe5f195d680e5bcd17832c377e8e76d10854e586fdbaf41601b27d29dba1a846002015460405161073991906116f5565b60405180910390a3505050565b5f5f5f5f8481526020019081526020015f20604051806101000160405290815f82015f9054906101000a900473ffffffffffffffffffffffffffffffffffffffff1673ffffffffffffffffffffffffffffffffffffffff1673ffffffffffffffffffffffffffffffffffffffff168152602001600182015f9054906101000a900473ffffffffffffffffffffffffffffffffffffffff1673ffffffffffffffffffffffffffffffffffffffff1673ffffffffffffffffffffffffffffffffffffffff16815260200160028201548152602001600382015481526020016004820154815260200160058201548152602001600682015f9054906101000a900460ff161515151581526020016006820160019054906101000a900460ff161515151581525050905080608001514211915050919050565b5f602052805f5260405f205f91509050805f015f9054906101000a900473ffffffffffffffffffffffffffffffffffffffff1690806001015f9054906101000a900473ffffffffffffffffffffffffffffffffffffffff1690806002015490806003015490806004015490806005015490806006015f9054906101000a900460ff16908060060160019054906101000a900460ff16905088565b606060015f8373ffffffffffffffffffffffffffffffffffffffff1673ffffffffffffffffffffffffffffffffffffffff1681526020019081526020015f2080548060200260200160405190810160405280929190818152602001828054801561099c57602002820191905f5260205f20905b815481526020019060010190808311610988575b50505050509050919050565b6002602052815f5260405f2081815481106109c1575f80fd5b905f5260205f20015f91509150505481565b60035481565b60605f5f5f8481526020019081526020015f20604051806101000160405290815f82015f9054906101000a900473ffffffffffffffffffffffffffffffffffffffff1673ffffffffffffffffffffffffffffffffffffffff1673ffffffffffffffffffffffffffffffffffffffff168152602001600182015f9054906101000a900473ffffffffffffffffffffffffffffffffffffffff1673ffffffffffffffffffffffffffffffffffffffff1673ffffffffffffffffffffffffffffffffffffffff16815260200160028201548152602001600382015481526020016004820154815260200160058201548152602001600682015f9054906101000a900460ff161515151581526020016006820160019054906101000a900460ff16151515158152505090505f73ffffffffffffffffffffffffffffffffffffffff16815f015173ffffffffffffffffffffffffffffffffffffffff1603610b74576040518060400160405280600981526020017f4e4f545f464f554e440000000000000000000000000000000000000000000000815250915050610c88565b8060c0015115610bbc576040518060400160405280600781526020017f434c41494d454400000000000000000000000000000000000000000000000000815250915050610c88565b8060e0015115610c04576040518060400160405280600981526020017f43414e43454c4c45440000000000000000000000000000000000000000000000815250915050610c88565b8060800151421115610c4e576040518060400160405280600781526020017f4558504952454400000000000000000000000000000000000000000000000000815250915050610c88565b6040518060400160405280600781526020017f50454e44494e47000000000000000000000000000000000000000000000000008152509150505b919050565b5f5f5f8481526020019081526020015f2090505f73ffffffffffffffffffffffffffffffffffffffff16815f015f9054906101000a900473ffffffffffffffffffffffffffffffffffffffff1673ffffffffffffffffffffffffffffffffffffffff1603610d27576040517f5688606600000000000000000000000000000000000000000000000000000000815260040160405180910390fd5b3373ffffffffffffffffffffffffffffffffffffffff16816001015f9054906101000a900473ffffffffffffffffffffffffffffffffffffffff1673ffffffffffffffffffffffffffffffffffffffff1614610daf576040517fea8e4eb500000000000000000000000000000000000000000000000000000000815260040160405180910390fd5b806006015f9054906101000a900460ff1615610df7576040517fbea856ba00000000000000000000000000000000000000000000000000000000815260040160405180910390fd5b8060060160019054906101000a900460ff1615610e40576040517f8297bc1a00000000000000000000000000000000000000000000000000000000815260040160405180910390fd5b8060040154421115610e7e576040517ff765373100000000000000000000000000000000000000000000000000000000815260040160405180910390fd5b5f5f1b816005015414610eef57806005015482604051602001610ea19190611c5b565b6040516020818303038152906040528051906020012014610eee576040517f860506ac00000000000000000000000000000000000000000000000000000000815260040160405180910390fd5b5b6001816006015f6101000a81548160ff0219169083151502179055505f3373ffffffffffffffffffffffffffffffffffffffff168260020154604051610f3490611ba5565b5f6040518083038185875af1925050503d805f8114610f6e576040519150601f19603f3d011682016040523d82523d5f602084013e610f73565b606091505b5050905080610fb7576040517f08c379a0000000000000000000000000000000000000000000000000000000008152600401610fae90611cbb565b60405180910390fd5b3373ffffffffffffffffffffffffffffffffffffffff16847f2ade3d60ca8df59b1295d8c32762add7594dd9234ef29fda077fbca5c83d6a5d846002015460405161100291906116f5565b60405180910390a350505050565b61101861149b565b5f5f8381526020019081526020015f20604051806101000160405290815f82015f9054906101000a900473ffffffffffffffffffffffffffffffffffffffff1673ffffffffffffffffffffffffffffffffffffffff1673ffffffffffffffffffffffffffffffffffffffff168152602001600182015f9054906101000a900473ffffffffffffffffffffffffffffffffffffffff1673ffffffffffffffffffffffffffffffffffffffff1673ffffffffffffffffffffffffffffffffffffffff16815260200160028201548152602001600382015481526020016004820154815260200160058201548152602001600682015f9054906101000a900460ff161515151581526020016006820160019054906101000a900460ff1615151515815250509050919050565b5f5f340361117b576040517ff4d678b800000000000000000000000000000000000000000000000000000000815260040160405180910390fd5b5f60035f81548092919061118e90611d06565b9190505590505f5f85116111a55762093a806111a7565b845b426111b29190611d4d565b90505f5f8551116111c5575f5f1b6111ed565b846040516020016111d69190611c5b565b604051602081830303815290604052805190602001205b90506040518061010001604052803373ffffffffffffffffffffffffffffffffffffffff1681526020018873ffffffffffffffffffffffffffffffffffffffff1681526020013481526020014281526020018381526020018281526020015f151581526020015f15158152505f5f8581526020019081526020015f205f820151815f015f6101000a81548173ffffffffffffffffffffffffffffffffffffffff021916908373ffffffffffffffffffffffffffffffffffffffff1602179055506020820151816001015f6101000a81548173ffffffffffffffffffffffffffffffffffffffff021916908373ffffffffffffffffffffffffffffffffffffffff16021790555060408201518160020155606082015181600301556080820151816004015560a0820151816005015560c0820151816006015f6101000a81548160ff02191690831515021790555060e08201518160060160016101000a81548160ff02191690831515021790555090505060015f3373ffffffffffffffffffffffffffffffffffffffff1673ffffffffffffffffffffffffffffffffffffffff1681526020019081526020015f2083908060018154018082558091505060019003905f5260205f20015f909190919091505560025f8873ffffffffffffffffffffffffffffffffffffffff1673ffffffffffffffffffffffffffffffffffffffff1681526020019081526020015f2083908060018154018082558091505060019003905f5260205f20015f90919091909150558673ffffffffffffffffffffffffffffffffffffffff163373ffffffffffffffffffffffffffffffffffffffff16847fcdde74858333a911bf1455bd97287b739d90673c63973acfe53dae21a7bae39734865f5f1b87141560405161148693929190611d80565b60405180910390a48293505050509392505050565b6040518061010001604052805f73ffffffffffffffffffffffffffffffffffffffff1681526020015f73ffffffffffffffffffffffffffffffffffffffff1681526020015f81526020015f81526020015f81526020015f81526020015f151581526020015f151581525090565b5f604051905090565b5f5ffd5b5f5ffd5b5f73ffffffffffffffffffffffffffffffffffffffff82169050919050565b5f61154282611519565b9050919050565b61155281611538565b811461155c575f5ffd5b50565b5f8135905061156d81611549565b92915050565b5f6020828403121561158857611587611511565b5b5f6115958482850161155f565b91505092915050565b5f81519050919050565b5f82825260208201905092915050565b5f819050602082019050919050565b5f819050919050565b6115d9816115c7565b82525050565b5f6115ea83836115d0565b60208301905092915050565b5f602082019050919050565b5f61160c8261159e565b61161681856115a8565b9350611621836115b8565b805f5b8381101561165157815161163888826115df565b9750611643836115f6565b925050600181019050611624565b5085935050505092915050565b5f6020820190508181035f8301526116768184611602565b905092915050565b611687816115c7565b8114611691575f5ffd5b50565b5f813590506116a28161167e565b92915050565b5f5f604083850312156116be576116bd611511565b5b5f6116cb8582860161155f565b92505060206116dc85828601611694565b9150509250929050565b6116ef816115c7565b82525050565b5f6020820190506117085f8301846116e6565b92915050565b5f6020828403121561172357611722611511565b5b5f61173084828501611694565b91505092915050565b5f8115159050919050565b61174d81611739565b82525050565b5f6020820190506117665f830184611744565b92915050565b61177581611538565b82525050565b5f819050919050565b61178d8161177b565b82525050565b5f610100820190506117a75f83018b61176c565b6117b4602083018a61176c565b6117c160408301896116e6565b6117ce60608301886116e6565b6117db60808301876116e6565b6117e860a0830186611784565b6117f560c0830185611744565b61180260e0830184611744565b9998505050505050505050565b5f81519050919050565b5f82825260208201905092915050565b8281835e5f83830152505050565b5f601f19601f8301169050919050565b5f6118518261180f565b61185b8185611819565b935061186b818560208601611829565b61187481611837565b840191505092915050565b5f6020820190508181035f8301526118978184611847565b905092915050565b5f5ffd5b5f5ffd5b7f4e487b71000000000000000000000000000000000000000000000000000000005f52604160045260245ffd5b6118dd82611837565b810181811067ffffffffffffffff821117156118fc576118fb6118a7565b5b80604052505050565b5f61190e611508565b905061191a82826118d4565b919050565b5f67ffffffffffffffff821115611939576119386118a7565b5b61194282611837565b9050602081019050919050565b828183375f83830152505050565b5f61196f61196a8461191f565b611905565b90508281526020810184848401111561198b5761198a6118a3565b5b61199684828561194f565b509392505050565b5f82601f8301126119b2576119b161189f565b5b81356119c284826020860161195d565b91505092915050565b5f5f604083850312156119e1576119e0611511565b5b5f6119ee85828601611694565b925050602083013567ffffffffffffffff811115611a0f57611a0e611515565b5b611a1b8582860161199e565b9150509250929050565b611a2e81611538565b82525050565b611a3d8161177b565b82525050565b611a4c81611739565b82525050565b61010082015f820151611a675f850182611a25565b506020820151611a7a6020850182611a25565b506040820151611a8d60408501826115d0565b506060820151611aa060608501826115d0565b506080820151611ab360808501826115d0565b5060a0820151611ac660a0850182611a34565b5060c0820151611ad960c0850182611a43565b5060e0820151611aec60e0850182611a43565b50505050565b5f61010082019050611b065f830184611a52565b92915050565b5f5f5f60608486031215611b2357611b22611511565b5b5f611b308682870161155f565b9350506020611b4186828701611694565b925050604084013567ffffffffffffffff811115611b6257611b61611515565b5b611b6e8682870161199e565b9150509250925092565b5f81905092915050565b50565b5f611b905f83611b78565b9150611b9b82611b82565b5f82019050919050565b5f611baf82611b85565b9150819050919050565b7f526566756e64206661696c6564000000000000000000000000000000000000005f82015250565b5f611bed600d83611819565b9150611bf882611bb9565b602082019050919050565b5f6020820190508181035f830152611c1a81611be1565b9050919050565b5f81905092915050565b5f611c358261180f565b611c3f8185611c21565b9350611c4f818560208601611829565b80840191505092915050565b5f611c668284611c2b565b915081905092915050565b7f5472616e73666572206661696c656400000000000000000000000000000000005f82015250565b5f611ca5600f83611819565b9150611cb082611c71565b602082019050919050565b5f6020820190508181035f830152611cd281611c99565b9050919050565b7f4e487b71000000000000000000000000000000000000000000000000000000005f52601160045260245ffd5b5f611d10826115c7565b91507fffffffffffffffffffffffffffffffffffffffffffffffffffffffffffffffff8203611d4257611d41611cd9565b5b600182019050919050565b5f611d57826115c7565b9150611d62836115c7565b9250828201905080821115611d7a57611d79611cd9565b5b92915050565b5f606082019050611d935f8301866116e6565b611da060208301856116e6565b611dad6040830184611744565b94935050505056fea2646970667358221220b7248287e914d26905479796bbb0d8477d4b3116a0831c763c76bd11ac41e8ff64736f6c634300081e0033","linkReferences":{}},"methodIdentifiers":{"DEFAULT_EXPIRY_DURATION()":"4ce9e289","cancelTransfer(uint256)":"59caecb5","claimTransfer(uint256,string)":"bdcd231d","createTransfer(address,uint256,string)":"db698f34","getRecipientTransfers(address)":"04233456","getSenderTransfers(address)":"9c51d4a1","getTransfer(uint256)":"c16fe907","getTransferStatus(uint256)":"b93c3770","isTransferExpired(uint256)":"6ad32f4e","nextTransferId()":"b85b381b","recipientTransfers(address,uint256)":"9cb80f00","senderTransfers(address,uint256)":"2bbdcb4e","transfers(uint256)":"9377d711"},"id":21}